:060000000200AF02040340
:03000B0002040BE1
:0300130002009355
:03001B0002041BC1
:03002300020423B1
:03002B0002042BA1
:0300330002043391
:03003B0002043B81
:0300430002044371
:03004B0002044B61
:0300530002045351
:03005B0002045B41
:0300630002046331
:03006B0002046B21
:0300730002047311
:03007B0002047B01
:03008300020483F1
:03008B0002048BE1
:0A009300C0D030D105D0D00201E842
:05009D00D0D0020413A5
:030108000200A250
:0500A20012024480FE83
:05010B00E50A7001226D
:0B011000E5AE20E7FB75AB11E50A250A
:0A011B000AF5AD75AC0043AE01001B
:06012500E5AE20E7FB221D
:0100A7000058
:0700A80043AE020002012E2D
:03012B000200A827
:01012E0022AE
:05012F00E50A70012249
:070134007A077BF88B0290B3
:07013B00F7FFEAF07A077BF1
:07014200F890F800EAF090CC
:0C014900F80174DFF090F80274AFF09041
:0E015500F803E4F0E0FA43020490F803EAF045
:0C01630090F804E4F090F8057412F0909D
:08016F00F8067442F07AFF7BF0
:06017700F78BD57AFF7B37
:05017D00F77B008AD4AD
:0B018200E5AE20E7FB75AB11E50A2598
:0B018D000AFA743F5AF5AD43D6011288
:02019800012B39
:05019A00E5D130E0FB9F
:08019F00E5AE54C0600280F8D7
:0401A70053D1FE2210
:0901AB00E509B508047582002283
:0801B400E5092400F582E434A2
:0701BC00F0F583E0F50AAA4B
:0801C300097B000ABA00010BE0
:0B01CB00BAFF08BB07057509008002A1
:0201D600050919
:0401D8007582012209
:0301DC008582C158
:0901DF00E58630E1FB5386FD22A8
:0E01E800C0E0C082C083C002C003C0D075D08A
:0A01F60000C28BE5082400F582E446
:0A02000034F0F583E5C1F0AA087B95
:06020A00000ABA00010B1E
:0B021000BAFF08BB070575080080025C
:02021B000508D4
:0D021D00D0D0D003D002D083D082D0E03208
:09022A00900400E0FABAFF012281
:0E023300C2AF759A0075B80075A800C2D1025E
:0302410004002294
:0302440053BEFBAB
:08024700E5BE30E6FB75C6E9D7
:0C024F00E5C630E6FB75C6A87509007511
:0C025B000800AAF174FE5A4402F5F143B9
:0E026700F30C7586C075C22275C50DC28BD210
:07027500AAD2D1D2AF7A003A
:03027C00BA0800BD
:0E027F0050138A030AEB9003C893F582C00265
:07028D001201DCD00280E841
:060294007AFF7BFF7C08ED
:0E029A00C002C003C0041201ABE582D004D044
:0E02A80003D0027025EC60228A058B061ABA7C
:0302B600FF011B2A
:0E02B900ED4E70DD758242C002C003C004121B
:0B02C70001DCD004D003D0021C80C872
:0A02D200EC60077421B50A028003F6
:0302DC0012022AE1
:0C02DF0053C9FCAAC974FB5A4408F5C9B5
:0E02EB001201ABE58260F9AAC9740F5A44A053
:0C02F900F5C9AAC9740F5A4450F5C9AAEF
:060305000ABA6502801D2A
:08030B00AA0ABA6A030203B555
:07031300AA0ABA6C02806F18
:07031A00AA0ABA7002801468
:07032100AA0ABA72C5801A96
:0B0328001201ABE58260F912010B022C
:0203330003BB0A
:0B0335001201ABE58260F912012F02FB
:0203400003BBFD
:0C0342001201ABE58260F9AA0AEA2A2544
:04034E00E0FB7A0056
:09035200AC0A7D000CBC00010D99
:0E035B00EC2C25E0FD7C00C3EA9CEB9D50528B
:0E036900EA2500F582EB3501F583E493F58279
:0E037700C002C0031201DCD003D0020ABA009B
:04038500CC0B80C954
:040389007A007B007B
:05038D0074FC2B402967
:0E039200C002C0031201ABE582D003D00260AE
:0A03A000F1EA2407F582EB34F8F5CA
:0B03AA0083E50AF00ABA00DB0B80D8E4
:0603B50012022A0202EB15
:0903BB007582001201DC0202EB64
:0803C8000D0A4343544C0D0AD9
:0600DE00E478FFF6D8FDF6
:0800BC007900E94400601B7AA1
:0500C400009003D0785C
:0300C9000075932C
:0A00CC0000E493F2A308B800020557
:0800D60093D9F4DAF27593FFEF
:0800E4007800E84400600A798D
:0300EC0000759309
:0600EF00F0E4F309D8FC67
:0800F5007807E8440C600C7967
:0B00FD000D90F000E4F0A3D8FCD9FA4D
:0300AF0075810A4E
:0A00B2001203C4E58260030200A2FD
:0403C400758200221C
:00000001FF
